{
  "address": "0x940E31ab67789F180dc1317536B965CCdccBa647",
  "abi": [
    {
      "inputs": [
        {
          "internalType": "address",
          "name": "exampleExternalContractAddress",
          "type": "address"
        }
      ],
      "stateMutability": "nonpayable",
      "type": "constructor"
    },
    {
      "anonymous": false,
      "inputs": [
        {
          "indexed": false,
          "internalType": "uint256",
          "name": "totalStaked",
          "type": "uint256"
        }
      ],
      "name": "ExecutionFailure",
      "type": "event"
    },
    {
      "anonymous": false,
      "inputs": [
        {
          "indexed": false,
          "internalType": "uint256",
          "name": "totalStaked",
          "type": "uint256"
        }
      ],
      "name": "ExecutionSuccess",
      "type": "event"
    },
    {
      "anonymous": false,
      "inputs": [
        {
          "indexed": true,
          "internalType": "address",
          "name": "user",
          "type": "address"
        },
        {
          "indexed": false,
          "internalType": "uint256",
          "name": "amount",
          "type": "uint256"
        }
      ],
      "name": "Stake",
      "type": "event"
    },
    {
      "anonymous": false,
      "inputs": [
        {
          "indexed": true,
          "internalType": "address",
          "name": "user",
          "type": "address"
        },
        {
          "indexed": false,
          "internalType": "uint256",
          "name": "amount",
          "type": "uint256"
        }
      ],
      "name": "Withdrawal",
      "type": "event"
    },
    {
      "inputs": [
        {
          "internalType": "address",
          "name": "",
          "type": "address"
        }
      ],
      "name": "balances",
      "outputs": [
        {
          "internalType": "uint256",
          "name": "",
          "type": "uint256"
        }
      ],
      "stateMutability": "view",
      "type": "function"
    },
    {
      "inputs": [],
      "name": "deadline",
      "outputs": [
        {
          "internalType": "uint256",
          "name": "",
          "type": "uint256"
        }
      ],
      "stateMutability": "view",
      "type": "function"
    },
    {
      "inputs": [],
      "name": "exampleExternalContract",
      "outputs": [
        {
          "internalType": "contract ExampleExternalContract",
          "name": "",
          "type": "address"
        }
      ],
      "stateMutability": "view",
      "type": "function"
    },
    {
      "inputs": [],
      "name": "execute",
      "outputs": [],
      "stateMutability": "nonpayable",
      "type": "function"
    },
    {
      "inputs": [],
      "name": "executed",
      "outputs": [
        {
          "internalType": "bool",
          "name": "",
          "type": "bool"
        }
      ],
      "stateMutability": "view",
      "type": "function"
    },
    {
      "inputs": [],
      "name": "stake",
      "outputs": [],
      "stateMutability": "payable",
      "type": "function"
    },
    {
      "inputs": [],
      "name": "threshold",
      "outputs": [
        {
          "internalType": "uint256",
          "name": "",
          "type": "uint256"
        }
      ],
      "stateMutability": "view",
      "type": "function"
    },
    {
      "inputs": [],
      "name": "timeLeft",
      "outputs": [
        {
          "internalType": "uint256",
          "name": "",
          "type": "uint256"
        }
      ],
      "stateMutability": "view",
      "type": "function"
    },
    {
      "inputs": [],
      "name": "withdraw",
      "outputs": [],
      "stateMutability": "nonpayable",
      "type": "function"
    },
    {
      "stateMutability": "payable",
      "type": "receive"
    }
  ],
  "transactionHash": "0x4a3ebc612e1cc69387cb596759ef20a2152aa91653d6e53f4658051b68f925a6",
  "args": [
    "0xeBB5864C6893ADfc1C7352C298Dd39f19b6cbBC7"
  ],
  "numDeployments": 1,
  "solcInputHash": "05a9f743c30bc1f4ab6f4e28c0e4770c",
  "bytecode": "0x60806040523480156200001157600080fd5b506040516200117e3803806200117e8339810160408190526200003491620001e9565b6001600160a01b0381166200008f5760405162461bcd60e51b815260206004820152601560248201527f61646472657373207a65726f2064657465637465640000000000000000000000604482015260640160405180910390fd5b600080546001600160a01b0319166001600160a01b038316179055620000b9426203f48062000280565b6001819055506200010b6040518060400160405280601c81526020017f5374616b657220636f6e7472616374206465706c6f7965642061743a00000000815250306200015e60201b62000bc41760201c565b620001576040518060400160405280601a81526020017f45787465726e616c20636f6e747261637420616464726573733a000000000000815250826200015e60201b62000bc41760201c565b50620002a5565b620001ab82826040516024016200017792919062000219565b60408051601f198184030181529190526020810180516001600160e01b0390811663319af33360e01b17909152620001af16565b5050565b620001c581620001c860201b62000c0d1760201c565b50565b60006a636f6e736f6c652e6c6f679050600080835160208501845afa505050565b600060208284031215620001fb578081fd5b81516001600160a01b038116811462000212578182fd5b9392505050565b6040815260008351806040840152815b8181101562000248576020818701810151606086840101520162000229565b818111156200025a5782606083860101525b506001600160a01b0393909316602083015250601f91909101601f191601606001919050565b60008219821115620002a057634e487b7160e01b81526011600452602481fd5b500190565b610ec980620002b56000396000f3fe60806040526004361061008a5760003560e01c80633a4b66f1116100595780633a4b66f1146102e75780633ccfd60b146102f157806342cde4e81461030657806361461954146103225780639f75f2271461033757600080fd5b80631300a6d11461025257806327e235e31461027a57806329dcb0cf146102a757806331a38c89146102bd57600080fd5b3661024d5760008054906101000a90046001600160a01b03166001600160a01b0316639d9a7fe96040518163ffffffff1660e01b815260040160206040518083038186803b1580156100db57600080fd5b505afa1580156100ef573d6000803e3d6000fd5b505050506040513d601f19601f820116820180604052508101906101139190610d0c565b1561015c5760405162461bcd60e51b815260206004820152601460248201527314dd185ada5b99c81a5cc818dbdb5c1b195d195960621b60448201526064015b60405180910390fd5b60015442106101a85760405162461bcd60e51b815260206004820152601860248201527714dd185ada5b99c81c195c9a5bd9081a185cc8195b99195960421b6044820152606401610153565b33600090815260026020526040812080543492906101c7908490610e4e565b9250508190555061021660405180604001604052806008815260200167149958d95a5d995960c21b815250346040518060400160405280600481526020016366726f6d60e01b8152503361036f565b60405134815233907febedb8b3c678666e7f36970bc8f57abf6d8fa2e828c0da91ea5b75bf68ed101a9060200160405180910390a2005b600080fd5b34801561025e57600080fd5b506102676103be565b6040519081526020015b60405180910390f35b34801561028657600080fd5b50610267610295366004610cde565b60026020526000908152604090205481565b3480156102b357600080fd5b5061026760015481565b3480156102c957600080fd5b506003546102d79060ff1681565b6040519015158152602001610271565b6102ef6103e2565b005b3480156102fd57600080fd5b506102ef610637565b34801561031257600080fd5b50610267670de0b6b3a764000081565b34801561032e57600080fd5b506102ef61093e565b34801561034357600080fd5b50600054610357906001600160a01b031681565b6040516001600160a01b039091168152602001610271565b6103b8848484846040516024016103899493929190610e09565b60408051601f198184030181529190526020810180516001600160e01b0316631f118ca960e21b179052610c2e565b50505050565b600060015442106103cf5750600090565b426001546103dd9190610e66565b905090565b60008054906101000a90046001600160a01b03166001600160a01b0316639d9a7fe96040518163ffffffff1660e01b815260040160206040518083038186803b15801561042e57600080fd5b505afa158015610442573d6000803e3d6000fd5b505050506040513d601f19601f820116820180604052508101906104669190610d0c565b156104aa5760405162461bcd60e51b815260206004820152601460248201527314dd185ada5b99c81a5cc818dbdb5c1b195d195960621b6044820152606401610153565b60015442106104f65760405162461bcd60e51b815260206004820152601860248201527714dd185ada5b99c81c195c9a5bd9081a185cc8195b99195960421b6044820152606401610153565b600034116105465760405162461bcd60e51b815260206004820152601a60248201527f596f75206d7573742073656e642045544820746f207374616b650000000000006044820152606401610153565b3360009081526002602052604081208054349290610565908490610e4e565b909155505060408051808201909152601a81527f5374616b65207375636365737366756c202d20416d6f756e743a00000000000060208201526105a89034610c3a565b604080518082018252600f81526e2732bb903130b630b731b2903337b960891b6020808301919091528251808401845260018152601d60f91b8183015233600081815260029093529390912054610600939190610c7f565b60405134815233907febedb8b3c678666e7f36970bc8f57abf6d8fa2e828c0da91ea5b75bf68ed101a9060200160405180910390a2565b6001544210156106895760405162461bcd60e51b815260206004820152601d60248201527f446561646c696e6520686173206e6f74206265656e20726561636865640000006044820152606401610153565b60008054906101000a90046001600160a01b03166001600160a01b0316639d9a7fe96040518163ffffffff1660e01b815260040160206040518083038186803b1580156106d557600080fd5b505afa1580156106e9573d6000803e3d6000fd5b505050506040513d601f19601f8201168201806040525081019061070d9190610d0c565b1561076a5760405162461bcd60e51b815260206004820152602760248201527f5374616b696e6720776173207375636365737366756c2c2063616e6e6f7420776044820152666974686472617760c81b6064820152608401610153565b336000908152600260205260409020546107bf5760405162461bcd60e51b81526020600482015260166024820152754e6f2062616c616e636520746f20776974686472617760501b6044820152606401610153565b60035460ff1661081f5760405162461bcd60e51b815260206004820152602560248201527f457865637574652066756e6374696f6e206d7573742062652063616c6c656420604482015264199a5c9cdd60da1b6064820152608401610153565b336000818152600260208181526040808420805494905580518082018252600b81526a5769746864726177696e6760a81b81840152815180830190925292815261746f60f01b91810191909152919261087992849161036f565b604051600090339083908381818185875af1925050503d80600081146108bb576040519150601f19603f3d011682016040523d82523d6000602084013e6108c0565b606091505b50509050806109055760405162461bcd60e51b815260206004820152601160248201527015da5d1a191c985dd85b0819985a5b1959607a1b6044820152606401610153565b60405182815233907f7fcf532c15f0a6db0bd6d0e038bea71d30d808c7d98cb3bf7268a95bf5081b659060200160405180910390a25050565b6001544210156109905760405162461bcd60e51b815260206004820152601d60248201527f446561646c696e6520686173206e6f74206265656e20726561636865640000006044820152606401610153565b60035460ff16156109ee5760405162461bcd60e51b815260206004820152602260248201527f436f6e74726163742068617320616c7265616479206265656e20657865637574604482015261195960f21b6064820152608401610153565b60008054906101000a90046001600160a01b03166001600160a01b0316639d9a7fe96040518163ffffffff1660e01b815260040160206040518083038186803b158015610a3a57600080fd5b505afa158015610a4e573d6000803e3d6000fd5b505050506040513d601f19601f82011682018060405250810190610a729190610d0c565b15610acb5760405162461bcd60e51b815260206004820152602360248201527f45787465726e616c20636f6e747261637420616c726561647920636f6d706c656044820152621d195960ea1b6064820152608401610153565b47670de0b6b3a76400008110610b805760008054906101000a90046001600160a01b03166001600160a01b031663522e1177826040518263ffffffff1660e01b81526004016000604051808303818588803b158015610b2957600080fd5b505af1158015610b3d573d6000803e3d6000fd5b50505050507ff2788e0d1a8dffbdac057cef8914e5346afd7a09d39d19b60080caf3cc07c4f781604051610b7391815260200190565b60405180910390a1610bb4565b6040518181527f526441bb6c1aba3c9a4a6ca1d6545da9c2333c8c48343ef398eb858d72b792369060200160405180910390a15b506003805460ff19166001179055565b610c098282604051602401610bda929190610d77565b60408051601f198184030181529190526020810180516001600160e01b031663319af33360e01b179052610c2e565b5050565b60006a636f6e736f6c652e6c6f679050600080835160208501845afa505050565b610c3781610c0d565b50565b610c098282604051602401610c50929190610de7565b60408051601f198184030181529190526020810180516001600160e01b0316632d839cb360e21b179052610c2e565b6103b884848484604051602401610c999493929190610da1565b60408051601f198184030181529190526020810180516001600160e01b03166348e8889760e11b179052610c2e565b634e487b7160e01b600052605160045260246000fd5b600060208284031215610cef578081fd5b81356001600160a01b0381168114610d05578182fd5b9392505050565b600060208284031215610d1d578081fd5b81518015158114610d05578182fd5b60008151808452815b81811015610d5157602081850181015186830182015201610d35565b81811115610d625782602083870101525b50601f01601f19169290920160200192915050565b604081526000610d8a6040830185610d2c565b905060018060a01b03831660208301529392505050565b608081526000610db46080830187610d2c565b6001600160a01b03861660208401528281036040840152610dd58186610d2c565b91505082606083015295945050505050565b604081526000610dfa6040830185610d2c565b90508260208301529392505050565b608081526000610e1c6080830187610d2c565b8560208401528281036040840152610e348186610d2c565b91505060018060a01b038316606083015295945050505050565b60008219821115610e6157610e61610e7d565b500190565b600082821015610e7857610e78610e7d565b500390565b634e487b7160e01b600052601160045260246000fdfea26469706673582212208270cd54e760b1a273f6f072bba535ccc76214b4468ce9cec55a7cd9b252e9db64736f6c63430008040033",
  "devdoc": {
    "kind": "dev",
    "methods": {},
    "version": 1
  },
  "userdoc": {
    "kind": "user",
    "methods": {},
    "version": 1
  },
  "storageLayout": {
    "storage": [
      {
        "astId": 19,
        "contract": "contracts/Staker.sol:Staker",
        "label": "exampleExternalContract",
        "offset": 0,
        "slot": "0",
        "type": "t_contract(ExampleExternalContract)12"
      },
      {
        "astId": 21,
        "contract": "contracts/Staker.sol:Staker",
        "label": "deadline",
        "offset": 0,
        "slot": "1",
        "type": "t_uint256"
      },
      {
        "astId": 28,
        "contract": "contracts/Staker.sol:Staker",
        "label": "balances",
        "offset": 0,
        "slot": "2",
        "type": "t_mapping(t_address,t_uint256)"
      },
      {
        "astId": 30,
        "contract": "contracts/Staker.sol:Staker",
        "label": "executed",
        "offset": 0,
        "slot": "3",
        "type": "t_bool"
      }
    ],
    "types": {
      "t_address": {
        "encoding": "inplace",
        "label": "address",
        "numberOfBytes": "20"
      },
      "t_bool": {
        "encoding": "inplace",
        "label": "bool",
        "numberOfBytes": "1"
      },
      "t_contract(ExampleExternalContract)12": {
        "encoding": "inplace",
        "label": "contract ExampleExternalContract",
        "numberOfBytes": "20"
      },
      "t_mapping(t_address,t_uint256)": {
        "encoding": "mapping",
        "key": "t_address",
        "label": "mapping(address => uint256)",
        "numberOfBytes": "32",
        "value": "t_uint256"
      },
      "t_uint256": {
        "encoding": "inplace",
        "label": "uint256",
        "numberOfBytes": "32"
      }
    }
  }
}